{
    "contractName": "Vault",
    "abi": [
        {
            "inputs": [
                {
                    "internalType": "contract ERC20",
                    "name": "asset",
                    "type": "address"
                },
                {
                    "internalType": "string",
                    "name": "_name",
                    "type": "string"
                },
                {
                    "internalType": "string",
                    "name": "_symbol",
                    "type": "string"
                }
            ],
            "stateMutability": "nonpayable",
            "type": "constructor"
        },
        {
            "anonymous": false,
            "inputs": [
                {
                    "indexed": true,
                    "internalType": "address",
                    "name": "owner",
                    "type": "address"
                },
                {
                    "indexed": true,
                    "internalType": "address",
                    "name": "spender",
                    "type": "address"
                },
                {
                    "indexed": false,
                    "internalType": "uint256",
                    "name": "value",
                    "type": "uint256"
                }
            ],
            "name": "Approval",
            "type": "event"
        },
        {
            "anonymous": false,
            "inputs": [],
            "name": "Deposit",
            "type": "event"
        },
        {
            "anonymous": false,
            "inputs": [
                {
                    "indexed": true,
                    "internalType": "address",
                    "name": "from",
                    "type": "address"
                },
                {
                    "indexed": true,
                    "internalType": "address",
                    "name": "to",
                    "type": "address"
                },
                {
                    "indexed": false,
                    "internalType": "uint256",
                    "name": "value",
                    "type": "uint256"
                }
            ],
            "name": "Transfer",
            "type": "event"
        },
        {
            "anonymous": false,
            "inputs": [],
            "name": "Withdraw",
            "type": "event"
        },
        {
            "inputs": [],
            "name": "_asset",
            "outputs": [
                {
                    "internalType": "contract ERC20",
                    "name": "",
                    "type": "address"
                }
            ],
            "stateMutability": "view",
            "type": "function"
        },
        {
            "inputs": [
                {
                    "internalType": "address",
                    "name": "owner",
                    "type": "address"
                },
                {
                    "internalType": "address",
                    "name": "spender",
                    "type": "address"
                }
            ],
            "name": "allowance",
            "outputs": [
                {
                    "internalType": "uint256",
                    "name": "",
                    "type": "uint256"
                }
            ],
            "stateMutability": "view",
            "type": "function"
        },
        {
            "inputs": [
                {
                    "internalType": "address",
                    "name": "spender",
                    "type": "address"
                },
                {
                    "internalType": "uint256",
                    "name": "amount",
                    "type": "uint256"
                }
            ],
            "name": "approve",
            "outputs": [
                {
                    "internalType": "bool",
                    "name": "",
                    "type": "bool"
                }
            ],
            "stateMutability": "nonpayable",
            "type": "function"
        },
        {
            "inputs": [
                {
                    "internalType": "address",
                    "name": "account",
                    "type": "address"
                }
            ],
            "name": "balanceOf",
            "outputs": [
                {
                    "internalType": "uint256",
                    "name": "",
                    "type": "uint256"
                }
            ],
            "stateMutability": "view",
            "type": "function"
        },
        {
            "inputs": [
                {
                    "internalType": "uint256",
                    "name": "assets",
                    "type": "uint256"
                }
            ],
            "name": "convertToShares",
            "outputs": [
                {
                    "internalType": "uint256",
                    "name": "",
                    "type": "uint256"
                }
            ],
            "stateMutability": "view",
            "type": "function"
        },
        {
            "inputs": [],
            "name": "decimals",
            "outputs": [
                {
                    "internalType": "uint8",
                    "name": "",
                    "type": "uint8"
                }
            ],
            "stateMutability": "view",
            "type": "function"
        },
        {
            "inputs": [
                {
                    "internalType": "address",
                    "name": "spender",
                    "type": "address"
                },
                {
                    "internalType": "uint256",
                    "name": "subtractedValue",
                    "type": "uint256"
                }
            ],
            "name": "decreaseAllowance",
            "outputs": [
                {
                    "internalType": "bool",
                    "name": "",
                    "type": "bool"
                }
            ],
            "stateMutability": "nonpayable",
            "type": "function"
        },
        {
            "inputs": [
                {
                    "internalType": "uint256",
                    "name": "underlyingAmount",
                    "type": "uint256"
                }
            ],
            "name": "deposit",
            "outputs": [
                {
                    "internalType": "uint256",
                    "name": "",
                    "type": "uint256"
                }
            ],
            "stateMutability": "nonpayable",
            "type": "function"
        },
        {
            "inputs": [
                {
                    "internalType": "address",
                    "name": "spender",
                    "type": "address"
                },
                {
                    "internalType": "uint256",
                    "name": "addedValue",
                    "type": "uint256"
                }
            ],
            "name": "increaseAllowance",
            "outputs": [
                {
                    "internalType": "bool",
                    "name": "",
                    "type": "bool"
                }
            ],
            "stateMutability": "nonpayable",
            "type": "function"
        },
        {
            "inputs": [],
            "name": "name",
            "outputs": [
                {
                    "internalType": "string",
                    "name": "",
                    "type": "string"
                }
            ],
            "stateMutability": "view",
            "type": "function"
        },
        {
            "inputs": [],
            "name": "symbol",
            "outputs": [
                {
                    "internalType": "string",
                    "name": "",
                    "type": "string"
                }
            ],
            "stateMutability": "view",
            "type": "function"
        },
        {
            "inputs": [],
            "name": "totalAssets",
            "outputs": [
                {
                    "internalType": "uint256",
                    "name": "",
                    "type": "uint256"
                }
            ],
            "stateMutability": "view",
            "type": "function"
        },
        {
            "inputs": [],
            "name": "totalSupply",
            "outputs": [
                {
                    "internalType": "uint256",
                    "name": "",
                    "type": "uint256"
                }
            ],
            "stateMutability": "view",
            "type": "function"
        },
        {
            "inputs": [
                {
                    "internalType": "address",
                    "name": "to",
                    "type": "address"
                },
                {
                    "internalType": "uint256",
                    "name": "amount",
                    "type": "uint256"
                }
            ],
            "name": "transfer",
            "outputs": [
                {
                    "internalType": "bool",
                    "name": "",
                    "type": "bool"
                }
            ],
            "stateMutability": "nonpayable",
            "type": "function"
        },
        {
            "inputs": [
                {
                    "internalType": "address",
                    "name": "from",
                    "type": "address"
                },
                {
                    "internalType": "address",
                    "name": "to",
                    "type": "address"
                },
                {
                    "internalType": "uint256",
                    "name": "amount",
                    "type": "uint256"
                }
            ],
            "name": "transferFrom",
            "outputs": [
                {
                    "internalType": "bool",
                    "name": "",
                    "type": "bool"
                }
            ],
            "stateMutability": "nonpayable",
            "type": "function"
        }
    ],
    "bytecode": "60a06040523480156200001157600080fd5b50604051620013be380380620013be8339810160408190526200003491620001db565b8151829082906200004d9060039060208501906200007e565b508051620000639060049060208401906200007e565b505050505060601b6001600160601b031916608052620002b8565b8280546200008c9062000265565b90600052602060002090601f016020900481019282620000b05760008555620000fb565b82601f10620000cb57805160ff1916838001178555620000fb565b82800160010185558215620000fb579182015b82811115620000fb578251825591602001919060010190620000de565b50620001099291506200010d565b5090565b5b808211156200010957600081556001016200010e565b600082601f8301126200013657600080fd5b81516001600160401b0380821115620001535762000153620002a2565b604051601f8301601f19908116603f011681019082821181831017156200017e576200017e620002a2565b816040528381526020925086838588010111156200019b57600080fd5b600091505b83821015620001bf5785820183015181830184015290820190620001a0565b83821115620001d15760008385830101525b9695505050505050565b600080600060608486031215620001f157600080fd5b83516001600160a01b03811681146200020957600080fd5b60208501519093506001600160401b03808211156200022757600080fd5b620002358783880162000124565b935060408601519150808211156200024c57600080fd5b506200025b8682870162000124565b9150509250925092565b600181811c908216806200027a57607f821691505b602082108114156200029c57634e487b7160e01b600052602260045260246000fd5b50919050565b634e487b7160e01b600052604160045260246000fd5b60805160601c6110d2620002ec600039600081816102450152818161029701528181610502015261057301526110d26000f3fe608060405234801561001057600080fd5b50600436106100f55760003560e01c806370a0823111610097578063b6b55f2511610066578063b6b55f25146101e1578063c6e6f592146101f4578063dd62ed3e14610207578063fcea5e291461024057600080fd5b806370a082311461018a57806395d89b41146101b3578063a457c2d7146101bb578063a9059cbb146101ce57600080fd5b806318160ddd116100d357806318160ddd1461014d57806323b872dd14610155578063313ce56714610168578063395093511461017757600080fd5b806301e1d114146100fa57806306fdde0314610115578063095ea7b31461012a575b600080fd5b61010261027f565b6040519081526020015b60405180910390f35b61011d61031e565b60405161010c9190610ea5565b61013d610138366004610de8565b6103b0565b604051901515815260200161010c565b600254610102565b61013d610163366004610dac565b6103ca565b6040516012815260200161010c565b61013d610185366004610de8565b6103f0565b610102610198366004610d5e565b6001600160a01b031660009081526020819052604090205490565b61011d61042f565b61013d6101c9366004610de8565b61043e565b61013d6101dc366004610de8565b6104e0565b6101026101ef366004610e34565b6104ee565b610102610202366004610e34565b610533565b610102610215366004610d79565b6001600160a01b03918216600090815260016020908152604080832093909416825291909152205490565b6102677f000000000000000000000000000000000000000000000000000000000000000081565b6040516001600160a01b03909116815260200161010c565b6040516370a0823160e01b81523060048201526000907f00000000000000000000000000000000000000000000000000000000000000006001600160a01b0316906370a082319060240160206040518083038186803b1580156102e157600080fd5b505afa1580156102f5573d6000803e3d6000fd5b505050506040513d601f19601f820116820180604052508101906103199190610e4d565b905090565b60606003805461032d9061104b565b80601f01602080910402602001604051908101604052809291908181526020018280546103599061104b565b80156103a65780601f1061037b576101008083540402835291602001916103a6565b820191906000526020600020905b81548152906001019060200180831161038957829003601f168201915b5050505050905090565b6000336103be81858561062d565b60019150505b92915050565b6000336103d8858285610751565b6103e38585856107e3565b60019150505b9392505050565b3360008181526001602090815260408083206001600160a01b03871684529091528120549091906103be908290869061042a908790610ed8565b61062d565b60606004805461032d9061104b565b3360008181526001602090815260408083206001600160a01b0387168452909152812054909190838110156104c85760405162461bcd60e51b815260206004820152602560248201527f45524332303a2064656372656173656420616c6c6f77616e63652062656c6f77604482015264207a65726f60d81b60648201526084015b60405180910390fd5b6104d5828686840361062d565b506001949350505050565b6000336103be8185856107e3565b600033816104fb84610533565b90506105297f00000000000000000000000000000000000000000000000000000000000000008330876109b1565b6103e98282610a0b565b60008061053f60025490565b905082158061054c575080155b6105715761055861027f565b6105628285611000565b61056c9190610ef0565b6103e9565b7f00000000000000000000000000000000000000000000000000000000000000006001600160a01b031663313ce5676040518163ffffffff1660e01b815260040160206040518083038186803b1580156105ca57600080fd5b505afa1580156105de573d6000803e3d6000fd5b505050506040513d601f19601f820116820180604052508101906106029190610e66565b61060d90600a610f55565b6106196012600a610f55565b6106239085611000565b6103e99190610ef0565b6001600160a01b03831661068f5760405162461bcd60e51b8152602060048201526024808201527f45524332303a20617070726f76652066726f6d20746865207a65726f206164646044820152637265737360e01b60648201526084016104bf565b6001600160a01b0382166106f05760405162461bcd60e51b815260206004820152602260248201527f45524332303a20617070726f766520746f20746865207a65726f206164647265604482015261737360f01b60648201526084016104bf565b6001600160a01b0383811660008181526001602090815260408083209487168084529482529182902085905590518481527f8c5be1e5ebec7d5bd14f71427d1e84f3dd0314c0f7b2291e5b200ac8c7c3b925910160405180910390a3505050565b6001600160a01b0383811660009081526001602090815260408083209386168352929052205460001981146107dd57818110156107d05760405162461bcd60e51b815260206004820152601d60248201527f45524332303a20696e73756666696369656e7420616c6c6f77616e636500000060448201526064016104bf565b6107dd848484840361062d565b50505050565b6001600160a01b0383166108475760405162461bcd60e51b815260206004820152602560248201527f45524332303a207472616e736665722066726f6d20746865207a65726f206164604482015264647265737360d81b60648201526084016104bf565b6001600160a01b0382166108a95760405162461bcd60e51b815260206004820152602360248201527f45524332303a207472616e7366657220746f20746865207a65726f206164647260448201526265737360e81b60648201526084016104bf565b6001600160a01b038316600090815260208190526040902054818110156109215760405162461bcd60e51b815260206004820152602660248201527f45524332303a207472616e7366657220616d6f756e7420657863656564732062604482015265616c616e636560d01b60648201526084016104bf565b6001600160a01b03808516600090815260208190526040808220858503905591851681529081208054849290610958908490610ed8565b92505081905550826001600160a01b0316846001600160a01b03167fddf252ad1be2c89b69c2b068fc378daa952ba7f163c4a11628f55a4df523b3ef846040516109a491815260200190565b60405180910390a36107dd565b604080516001600160a01b0385811660248301528416604482015260648082018490528251808303909101815260849091019091526020810180516001600160e01b03166323b872dd60e01b1790526107dd908590610aef565b6001600160a01b038216610a615760405162461bcd60e51b815260206004820152601f60248201527f45524332303a206d696e7420746f20746865207a65726f20616464726573730060448201526064016104bf565b8060026000828254610a739190610ed8565b90915550506001600160a01b03821660009081526020819052604081208054839290610aa0908490610ed8565b90915550506040518181526001600160a01b038316906000907fddf252ad1be2c89b69c2b068fc378daa952ba7f163c4a11628f55a4df523b3ef9060200160405180910390a35050565b505050565b6000610b44826040518060400160405280602081526020017f5361666545524332303a206c6f772d6c6576656c2063616c6c206661696c6564815250856001600160a01b0316610bc19092919063ffffffff16565b805190915015610aea5780806020019051810190610b629190610e12565b610aea5760405162461bcd60e51b815260206004820152602a60248201527f5361666545524332303a204552433230206f7065726174696f6e20646964206e6044820152691bdd081cdd58d8d9595960b21b60648201526084016104bf565b6060610bd08484600085610bd8565b949350505050565b606082471015610c395760405162461bcd60e51b815260206004820152602660248201527f416464726573733a20696e73756666696369656e742062616c616e636520666f6044820152651c8818d85b1b60d21b60648201526084016104bf565b6001600160a01b0385163b610c905760405162461bcd60e51b815260206004820152601d60248201527f416464726573733a2063616c6c20746f206e6f6e2d636f6e747261637400000060448201526064016104bf565b600080866001600160a01b03168587604051610cac9190610e89565b60006040518083038185875af1925050503d8060008114610ce9576040519150601f19603f3d011682016040523d82523d6000602084013e610cee565b606091505b5091509150610cfe828286610d09565b979650505050505050565b60608315610d185750816103e9565b825115610d285782518084602001fd5b8160405162461bcd60e51b81526004016104bf9190610ea5565b80356001600160a01b0381168114610d5957600080fd5b919050565b600060208284031215610d7057600080fd5b6103e982610d42565b60008060408385031215610d8c57600080fd5b610d9583610d42565b9150610da360208401610d42565b90509250929050565b600080600060608486031215610dc157600080fd5b610dca84610d42565b9250610dd860208501610d42565b9150604084013590509250925092565b60008060408385031215610dfb57600080fd5b610e0483610d42565b946020939093013593505050565b600060208284031215610e2457600080fd5b815180151581146103e957600080fd5b600060208284031215610e4657600080fd5b5035919050565b600060208284031215610e5f57600080fd5b5051919050565b600060208284031215610e7857600080fd5b815160ff811681146103e957600080fd5b60008251610e9b81846020870161101f565b9190910192915050565b6020815260008251806020840152610ec481604085016020870161101f565b601f01601f19169190910160400192915050565b60008219821115610eeb57610eeb611086565b500190565b600082610f0d57634e487b7160e01b600052601260045260246000fd5b500490565b600181815b80851115610f4d578160001904821115610f3357610f33611086565b80851615610f4057918102915b93841c9390800290610f17565b509250929050565b60006103e960ff841683600082610f6e575060016103c4565b81610f7b575060006103c4565b8160018114610f915760028114610f9b57610fb7565b60019150506103c4565b60ff841115610fac57610fac611086565b50506001821b6103c4565b5060208310610133831016604e8410600b8410161715610fda575081810a6103c4565b610fe48383610f12565b8060001904821115610ff857610ff8611086565b029392505050565b600081600019048311821515161561101a5761101a611086565b500290565b60005b8381101561103a578181015183820152602001611022565b838111156107dd5750506000910152565b600181811c9082168061105f57607f821691505b6020821081141561108057634e487b7160e01b600052602260045260246000fd5b50919050565b634e487b7160e01b600052601160045260246000fdfea2646970667358221220a9eb864a2a69790ae4e1cfdfd718dc7bb9affcd6560d805435288e1a41d6818064736f6c63430008060033",
    "sourcePath": "/home/manuel/www/profit-maker-vault/contracts/Vault.sol",
    "compiler": {
        "name": "solc",
        "version": "0.8.6+commit.11564f7e"
    },
    "functionHashes": {
        "_asset()": "fcea5e29",
        "allowance(address,address)": "dd62ed3e",
        "approve(address,uint256)": "095ea7b3",
        "balanceOf(address)": "70a08231",
        "convertToShares(uint256)": "c6e6f592",
        "decimals()": "313ce567",
        "decreaseAllowance(address,uint256)": "a457c2d7",
        "deposit(uint256)": "b6b55f25",
        "increaseAllowance(address,uint256)": "39509351",
        "name()": "06fdde03",
        "symbol()": "95d89b41",
        "totalAssets()": "01e1d114",
        "totalSupply()": "18160ddd",
        "transfer(address,uint256)": "a9059cbb",
        "transferFrom(address,address,uint256)": "23b872dd"
    },
    "gasEstimates": {
        "creation": {
            "codeDepositCost": "861200",
            "executionCost": "infinite",
            "totalCost": "infinite"
        },
        "external": {
            "_asset()": "infinite",
            "allowance(address,address)": "infinite",
            "approve(address,uint256)": "24673",
            "balanceOf(address)": "2552",
            "convertToShares(uint256)": "infinite",
            "decimals()": "244",
            "decreaseAllowance(address,uint256)": "26967",
            "deposit(uint256)": "infinite",
            "increaseAllowance(address,uint256)": "27038",
            "name()": "infinite",
            "symbol()": "infinite",
            "totalAssets()": "infinite",
            "totalSupply()": "2304",
            "transfer(address,uint256)": "51275",
            "transferFrom(address,address,uint256)": "infinite"
        }
    }
}