{
    "contractName": "Vault",
    "abi": [
        {
            "inputs": [
                {
                    "internalType": "string",
                    "name": "_name",
                    "type": "string"
                },
                {
                    "internalType": "string",
                    "name": "_symbol",
                    "type": "string"
                }
            ],
            "stateMutability": "nonpayable",
            "type": "constructor"
        },
        {
            "anonymous": false,
            "inputs": [
                {
                    "indexed": true,
                    "internalType": "address",
                    "name": "owner",
                    "type": "address"
                },
                {
                    "indexed": true,
                    "internalType": "address",
                    "name": "spender",
                    "type": "address"
                },
                {
                    "indexed": false,
                    "internalType": "uint256",
                    "name": "value",
                    "type": "uint256"
                }
            ],
            "name": "Approval",
            "type": "event"
        },
        {
            "anonymous": false,
            "inputs": [
                {
                    "indexed": false,
                    "internalType": "uint256",
                    "name": "rewards",
                    "type": "uint256"
                }
            ],
            "name": "Claim",
            "type": "event"
        },
        {
            "anonymous": false,
            "inputs": [
                {
                    "indexed": false,
                    "internalType": "address",
                    "name": "_user",
                    "type": "address"
                },
                {
                    "indexed": false,
                    "internalType": "uint256",
                    "name": "_underlying_amount",
                    "type": "uint256"
                },
                {
                    "indexed": false,
                    "internalType": "uint256",
                    "name": "_shares",
                    "type": "uint256"
                }
            ],
            "name": "Deposit",
            "type": "event"
        },
        {
            "anonymous": false,
            "inputs": [
                {
                    "indexed": true,
                    "internalType": "address",
                    "name": "previousOwner",
                    "type": "address"
                },
                {
                    "indexed": true,
                    "internalType": "address",
                    "name": "newOwner",
                    "type": "address"
                }
            ],
            "name": "OwnershipTransferred",
            "type": "event"
        },
        {
            "anonymous": false,
            "inputs": [
                {
                    "indexed": true,
                    "internalType": "address",
                    "name": "from",
                    "type": "address"
                },
                {
                    "indexed": true,
                    "internalType": "address",
                    "name": "to",
                    "type": "address"
                },
                {
                    "indexed": false,
                    "internalType": "uint256",
                    "name": "value",
                    "type": "uint256"
                }
            ],
            "name": "Transfer",
            "type": "event"
        },
        {
            "anonymous": false,
            "inputs": [
                {
                    "indexed": false,
                    "internalType": "address",
                    "name": "_user",
                    "type": "address"
                },
                {
                    "indexed": false,
                    "internalType": "uint256",
                    "name": "_lp_amount",
                    "type": "uint256"
                },
                {
                    "indexed": false,
                    "internalType": "uint256",
                    "name": "_shares",
                    "type": "uint256"
                }
            ],
            "name": "Withdraw",
            "type": "event"
        },
        {
            "inputs": [
                {
                    "internalType": "address",
                    "name": "owner",
                    "type": "address"
                },
                {
                    "internalType": "address",
                    "name": "spender",
                    "type": "address"
                }
            ],
            "name": "allowance",
            "outputs": [
                {
                    "internalType": "uint256",
                    "name": "",
                    "type": "uint256"
                }
            ],
            "stateMutability": "view",
            "type": "function"
        },
        {
            "inputs": [
                {
                    "internalType": "address",
                    "name": "spender",
                    "type": "address"
                },
                {
                    "internalType": "uint256",
                    "name": "amount",
                    "type": "uint256"
                }
            ],
            "name": "approve",
            "outputs": [
                {
                    "internalType": "bool",
                    "name": "",
                    "type": "bool"
                }
            ],
            "stateMutability": "nonpayable",
            "type": "function"
        },
        {
            "inputs": [],
            "name": "asset",
            "outputs": [
                {
                    "internalType": "contract IERC20",
                    "name": "",
                    "type": "address"
                }
            ],
            "stateMutability": "view",
            "type": "function"
        },
        {
            "inputs": [],
            "name": "assetBalance",
            "outputs": [
                {
                    "internalType": "uint256",
                    "name": "",
                    "type": "uint256"
                }
            ],
            "stateMutability": "view",
            "type": "function"
        },
        {
            "inputs": [
                {
                    "internalType": "address",
                    "name": "account",
                    "type": "address"
                }
            ],
            "name": "balanceOf",
            "outputs": [
                {
                    "internalType": "uint256",
                    "name": "",
                    "type": "uint256"
                }
            ],
            "stateMutability": "view",
            "type": "function"
        },
        {
            "inputs": [],
            "name": "decimals",
            "outputs": [
                {
                    "internalType": "uint8",
                    "name": "",
                    "type": "uint8"
                }
            ],
            "stateMutability": "view",
            "type": "function"
        },
        {
            "inputs": [
                {
                    "internalType": "address",
                    "name": "spender",
                    "type": "address"
                },
                {
                    "internalType": "uint256",
                    "name": "subtractedValue",
                    "type": "uint256"
                }
            ],
            "name": "decreaseAllowance",
            "outputs": [
                {
                    "internalType": "bool",
                    "name": "",
                    "type": "bool"
                }
            ],
            "stateMutability": "nonpayable",
            "type": "function"
        },
        {
            "inputs": [
                {
                    "internalType": "uint256",
                    "name": "underlyingAmount",
                    "type": "uint256"
                }
            ],
            "name": "deposit",
            "outputs": [
                {
                    "internalType": "uint256",
                    "name": "",
                    "type": "uint256"
                }
            ],
            "stateMutability": "nonpayable",
            "type": "function"
        },
        {
            "inputs": [],
            "name": "exchangeRate",
            "outputs": [
                {
                    "internalType": "uint256",
                    "name": "",
                    "type": "uint256"
                }
            ],
            "stateMutability": "view",
            "type": "function"
        },
        {
            "inputs": [],
            "name": "harvest",
            "outputs": [],
            "stateMutability": "nonpayable",
            "type": "function"
        },
        {
            "inputs": [
                {
                    "internalType": "address",
                    "name": "spender",
                    "type": "address"
                },
                {
                    "internalType": "uint256",
                    "name": "addedValue",
                    "type": "uint256"
                }
            ],
            "name": "increaseAllowance",
            "outputs": [
                {
                    "internalType": "bool",
                    "name": "",
                    "type": "bool"
                }
            ],
            "stateMutability": "nonpayable",
            "type": "function"
        },
        {
            "inputs": [],
            "name": "investedBalance",
            "outputs": [
                {
                    "internalType": "uint256",
                    "name": "",
                    "type": "uint256"
                }
            ],
            "stateMutability": "view",
            "type": "function"
        },
        {
            "inputs": [],
            "name": "name",
            "outputs": [
                {
                    "internalType": "string",
                    "name": "",
                    "type": "string"
                }
            ],
            "stateMutability": "view",
            "type": "function"
        },
        {
            "inputs": [],
            "name": "owner",
            "outputs": [
                {
                    "internalType": "address",
                    "name": "",
                    "type": "address"
                }
            ],
            "stateMutability": "view",
            "type": "function"
        },
        {
            "inputs": [],
            "name": "renounceOwnership",
            "outputs": [],
            "stateMutability": "nonpayable",
            "type": "function"
        },
        {
            "inputs": [
                {
                    "internalType": "contract IStrategy",
                    "name": "strategy",
                    "type": "address"
                }
            ],
            "name": "setStrategy",
            "outputs": [],
            "stateMutability": "nonpayable",
            "type": "function"
        },
        {
            "inputs": [],
            "name": "symbol",
            "outputs": [
                {
                    "internalType": "string",
                    "name": "",
                    "type": "string"
                }
            ],
            "stateMutability": "view",
            "type": "function"
        },
        {
            "inputs": [],
            "name": "totalBalance",
            "outputs": [
                {
                    "internalType": "uint256",
                    "name": "",
                    "type": "uint256"
                }
            ],
            "stateMutability": "view",
            "type": "function"
        },
        {
            "inputs": [],
            "name": "totalSupply",
            "outputs": [
                {
                    "internalType": "uint256",
                    "name": "",
                    "type": "uint256"
                }
            ],
            "stateMutability": "view",
            "type": "function"
        },
        {
            "inputs": [
                {
                    "internalType": "address",
                    "name": "to",
                    "type": "address"
                },
                {
                    "internalType": "uint256",
                    "name": "amount",
                    "type": "uint256"
                }
            ],
            "name": "transfer",
            "outputs": [
                {
                    "internalType": "bool",
                    "name": "",
                    "type": "bool"
                }
            ],
            "stateMutability": "nonpayable",
            "type": "function"
        },
        {
            "inputs": [
                {
                    "internalType": "address",
                    "name": "from",
                    "type": "address"
                },
                {
                    "internalType": "address",
                    "name": "to",
                    "type": "address"
                },
                {
                    "internalType": "uint256",
                    "name": "amount",
                    "type": "uint256"
                }
            ],
            "name": "transferFrom",
            "outputs": [
                {
                    "internalType": "bool",
                    "name": "",
                    "type": "bool"
                }
            ],
            "stateMutability": "nonpayable",
            "type": "function"
        },
        {
            "inputs": [
                {
                    "internalType": "address",
                    "name": "newOwner",
                    "type": "address"
                }
            ],
            "name": "transferOwnership",
            "outputs": [],
            "stateMutability": "nonpayable",
            "type": "function"
        },
        {
            "inputs": [],
            "name": "underlyingUnit",
            "outputs": [
                {
                    "internalType": "uint256",
                    "name": "",
                    "type": "uint256"
                }
            ],
            "stateMutability": "view",
            "type": "function"
        },
        {
            "inputs": [
                {
                    "internalType": "uint256",
                    "name": "lpAmount",
                    "type": "uint256"
                }
            ],
            "name": "withdraw",
            "outputs": [],
            "stateMutability": "nonpayable",
            "type": "function"
        }
    ],
    "bytecode": "60806040523480156200001157600080fd5b50604051620021c9380380620021c9833981016040819052620000349162000237565b8151829082906200004d906003906020850190620000de565b50805162000063906004906020840190620000de565b505050620000806200007a6200008860201b60201c565b6200008c565b5050620002f1565b3390565b600580546001600160a01b038381166001600160a01b0319831681179093556040519116919082907f8be0079c531659141344cd1fd0a4f28419497f9722a3daafe3b4186f6b6457e090600090a35050565b828054620000ec906200029e565b90600052602060002090601f0160209004810192826200011057600085556200015b565b82601f106200012b57805160ff19168380011785556200015b565b828001600101855582156200015b579182015b828111156200015b5782518255916020019190600101906200013e565b50620001699291506200016d565b5090565b5b808211156200016957600081556001016200016e565b600082601f83011262000195578081fd5b81516001600160401b0380821115620001b257620001b2620002db565b604051601f8301601f19908116603f01168101908282118183101715620001dd57620001dd620002db565b81604052838152602092508683858801011115620001f9578485fd5b8491505b838210156200021c5785820183015181830184015290820190620001fd565b838211156200022d57848385830101525b9695505050505050565b600080604083850312156200024a578182fd5b82516001600160401b038082111562000261578384fd5b6200026f8683870162000184565b9350602085015191508082111562000285578283fd5b50620002948582860162000184565b9150509250929050565b600281046001821680620002b357607f821691505b60208210811415620002d557634e487b7160e01b600052602260045260246000fd5b50919050565b634e487b7160e01b600052604160045260246000fd5b611ec880620003016000396000f3fe608060405234801561001057600080fd5b50600436106101585760003560e01c806370a08231116100c3578063ad7a672f1161007c578063ad7a672f14610291578063b6b55f2514610299578063c66f2455146102ac578063c9168a59146102b4578063dd62ed3e146102bc578063f2fde38b146102cf57610158565b806370a0823114610240578063715018a6146102535780638da5cb5b1461025b57806395d89b4114610263578063a457c2d71461026b578063a9059cbb1461027e57610158565b806333a100ca1161011557806333a100ca146101ed57806338d52e0f1461020057806339509351146102155780633ba0b9a9146102285780634641257d1461023057806353ceb01c1461023857610158565b806306fdde031461015d578063095ea7b31461017b57806318160ddd1461019b57806323b872dd146101b05780632e1a7d4d146101c3578063313ce567146101d8575b600080fd5b6101656102e2565b6040516101729190611878565b60405180910390f35b61018e61018936600461166f565b610374565b604051610172919061186d565b6101a3610396565b6040516101729190611cde565b61018e6101be36600461162f565b61039c565b6101d66101d1366004611795565b6103cc565b005b6101e06104de565b6040516101729190611d6e565b6101d66101fb3660046115db565b6104e3565b610208610544565b60405161017291906117e1565b61018e61022336600461166f565b6105c6565b6101a3610612565b6101d6610652565b6101a36107b4565b6101a361024e3660046115db565b610831565b6101d661084c565b610208610897565b6101656108a6565b61018e61027936600461166f565b6108b5565b61018e61028c36600461166f565b610921565b6101a3610939565b6101a36102a7366004611795565b610954565b6101a3610b13565b6101a3610b60565b6101a36102ca3660046115f7565b610ba5565b6101d66102dd3660046115db565b610bd0565b6060600380546102f190611e16565b80601f016020809104026020016040519081016040528092919081815260200182805461031d90611e16565b801561036a5780601f1061033f5761010080835404028352916020019161036a565b820191906000526020600020905b81548152906001019060200180831161034d57829003601f168201915b5050505050905090565b60008061037f610c41565b905061038c818585610c45565b5060019392505050565b60025490565b6000806103a7610c41565b90506103b4858285610cf9565b6103bf858585610d43565b60019150505b9392505050565b60006103d6610c41565b90506103e181610831565b8211156104095760405162461bcd60e51b815260040161040090611b66565b60405180910390fd5b600061042e6104166107b4565b610428610421610612565b8690610e67565b90610e73565b905061043a8284610e7f565b60065460405163356899eb60e01b81526001600160a01b039091169063356899eb9061046c9084908690600401611ce7565b600060405180830381600087803b15801561048657600080fd5b505af115801561049a573d6000803e3d6000fd5b505050507ff279e6a1f5e320cca91135676d9cb6e44ca8a08c0b88342bcdb1144f6511b5688282856040516104d19392919061184c565b60405180910390a1505050565b601290565b6104eb610c41565b6001600160a01b03166104fc610897565b6001600160a01b0316146105225760405162461bcd60e51b815260040161040090611aab565b600680546001600160a01b0319166001600160a01b0392909216919091179055565b600654604080516338d52e0f60e01b815290516000926001600160a01b0316916338d52e0f916004808301926020929190829003018186803b15801561058957600080fd5b505afa15801561059d573d6000803e3d6000fd5b505050506040513d601f19601f820116820180604052508101906105c19190611779565b905090565b6000806105d1610c41565b6001600160a01b0380821660009081526001602090815260408083209389168352929052205490915061038c908290869061060d908790611d7c565b610c45565b600061061c610396565b1561064a5761064561062c610396565b610428610637610939565b61063f6107b4565b90610e67565b6105c1565b6105c16107b4565b600061065c610544565b90506000610668610b13565b9050600660009054906101000a90046001600160a01b03166001600160a01b0316634e71d92d6040518163ffffffff1660e01b8152600401600060405180830381600087803b1580156106ba57600080fd5b505af11580156106ce573d6000803e3d6000fd5b505050506106db82610f71565b60006106e5610b13565b6006549091506107079084906001600160a01b0316610702610b13565b6111d4565b7f7bb2b3c10797baccb6f8c4791f1edd6ca2f0d028ee0eda64b01a9a57e3a653f7610732828461122a565b60405161073f9190611cde565b60405180910390a1600660009054906101000a90046001600160a01b03166001600160a01b031663e8b5e51f6040518163ffffffff1660e01b8152600401600060405180830381600087803b15801561079757600080fd5b505af11580156107ab573d6000803e3d6000fd5b50505050505050565b600654604080516314f3ac0760e21b815290516000926001600160a01b0316916353ceb01c916004808301926020929190829003018186803b1580156107f957600080fd5b505afa15801561080d573d6000803e3d6000fd5b505050506040513d601f19601f820116820180604052508101906105c191906117ad565b6001600160a01b031660009081526020819052604090205490565b610854610c41565b6001600160a01b0316610865610897565b6001600160a01b03161461088b5760405162461bcd60e51b815260040161040090611aab565b6108956000611236565b565b6005546001600160a01b031690565b6060600480546102f190611e16565b6000806108c0610c41565b6001600160a01b03808216600090815260016020908152604080832093891683529290522054909150838110156109095760405162461bcd60e51b815260040161040090611c62565b6109168286868403610c45565b506001949350505050565b60008061092c610c41565b905061038c818585610d43565b60006105c1610946610b60565b61094e610b13565b90611288565b60008061095f610c41565b9050600061096b610544565b90506000816001600160a01b03166370a08231846040518263ffffffff1660e01b815260040161099b91906117e1565b60206040518083038186803b1580156109b357600080fd5b505afa1580156109c7573d6000803e3d6000fd5b505050506040513d601f19601f820116820180604052508101906109eb91906117ad565b90506000858210156109fd57816109ff565b855b905060008111610a215760405162461bcd60e51b8152600401610400906119b8565b600654610a3b90849086906001600160a01b031684611294565b6000610a5a610a48610612565b610428610a536107b4565b8590610e67565b9050610a6685826112b5565b600660009054906101000a90046001600160a01b03166001600160a01b031663e8b5e51f6040518163ffffffff1660e01b8152600401600060405180830381600087803b158015610ab657600080fd5b505af1158015610aca573d6000803e3d6000fd5b505050507f90890809c654f11d6e72a28fa60149770a0d11ec6c92319d6ceb2bb0a4ea1a15858883604051610b019392919061184c565b60405180910390a19695505050505050565b6000610b1d610544565b6001600160a01b03166370a08231306040518263ffffffff1660e01b8152600401610b4891906117e1565b60206040518083038186803b1580156107f957600080fd5b6006546040805163c9168a5960e01b815290516000926001600160a01b03169163c9168a59916004808301926020929190829003018186803b1580156107f957600080fd5b6001600160a01b03918216600090815260016020908152604080832093909416825291909152205490565b610bd8610c41565b6001600160a01b0316610be9610897565b6001600160a01b031614610c0f5760405162461bcd60e51b815260040161040090611aab565b6001600160a01b038116610c355760405162461bcd60e51b815260040161040090611930565b610c3e81611236565b50565b3390565b6001600160a01b038316610c6b5760405162461bcd60e51b815260040161040090611b9d565b6001600160a01b038216610c915760405162461bcd60e51b815260040161040090611976565b6001600160a01b0380841660008181526001602090815260408083209487168084529490915290819020849055517f8c5be1e5ebec7d5bd14f71427d1e84f3dd0314c0f7b2291e5b200ac8c7c3b92590610cec908590611cde565b60405180910390a3505050565b6000610d058484610ba5565b90506000198114610d3d5781811015610d305760405162461bcd60e51b8152600401610400906119e8565b610d3d8484848403610c45565b50505050565b6001600160a01b038316610d695760405162461bcd60e51b815260040161040090611b21565b6001600160a01b038216610d8f5760405162461bcd60e51b8152600401610400906118ab565b610d9a838383610f6c565b6001600160a01b03831660009081526020819052604090205481811015610dd35760405162461bcd60e51b815260040161040090611a1f565b6001600160a01b03808516600090815260208190526040808220858503905591851681529081208054849290610e0a908490611d7c565b92505081905550826001600160a01b0316846001600160a01b03167fddf252ad1be2c89b69c2b068fc378daa952ba7f163c4a11628f55a4df523b3ef84604051610e549190611cde565b60405180910390a3610d3d848484610f6c565b60006103c58284611db4565b60006103c58284611d94565b6001600160a01b038216610ea55760405162461bcd60e51b815260040161040090611ae0565b610eb182600083610f6c565b6001600160a01b03821660009081526020819052604090205481811015610eea5760405162461bcd60e51b8152600401610400906118ee565b6001600160a01b0383166000908152602081905260408120838303905560028054849290610f19908490611dd3565b90915550506040516000906001600160a01b038516907fddf252ad1be2c89b69c2b068fc378daa952ba7f163c4a11628f55a4df523b3ef90610f5c908690611cde565b60405180910390a3610f6c836000845b505050565b60065460408051634a2e48a160e11b815290516000926001600160a01b03169163945c9142916004808301926020929190829003018186803b158015610fb657600080fd5b505afa158015610fca573d6000803e3d6000fd5b505050506040513d601f19601f82011682018060405250810190610fee9190611779565b90506000816001600160a01b03166370a08231306040518263ffffffff1660e01b815260040161101e91906117e1565b60206040518083038186803b15801561103657600080fd5b505afa15801561104a573d6000803e3d6000fd5b505050506040513d601f19601f8201168201806040525081019061106e91906117ad565b604080516002808252606082018352929350600092909160208301908036833701905050905082816000815181106110b657634e487b7160e01b600052603260045260246000fd5b60200260200101906001600160a01b031690816001600160a01b03168152505083816001815181106110f857634e487b7160e01b600052603260045260246000fd5b60200260200101906001600160a01b031690816001600160a01b03168152505061113783737a250d5630b4cf539739df2c5dacb4c659f2488d84611381565b6040516338ed173960e01b8152737a250d5630b4cf539739df2c5dacb4c659f2488d906338ed173990611177908590600090869030904290600401611cfe565b600060405180830381600087803b15801561119157600080fd5b505af11580156111a5573d6000803e3d6000fd5b505050506040513d6000823e601f3d908101601f191682016040526111cd919081019061169a565b5050505050565b610f6c8363a9059cbb60e01b84846040516024016111f3929190611833565b60408051601f198184030181529190526020810180516001600160e01b03166001600160e01b03199093169290921790915261142d565b60006103c58284611dd3565b600580546001600160a01b038381166001600160a01b0319831681179093556040519116919082907f8be0079c531659141344cd1fd0a4f28419497f9722a3daafe3b4186f6b6457e090600090a35050565b60006103c58284611d7c565b610d3d846323b872dd60e01b8585856040516024016111f39392919061180f565b6001600160a01b0382166112db5760405162461bcd60e51b815260040161040090611ca7565b6112e760008383610f6c565b80600260008282546112f99190611d7c565b90915550506001600160a01b03821660009081526020819052604081208054839290611326908490611d7c565b90915550506040516001600160a01b038316906000907fddf252ad1be2c89b69c2b068fc378daa952ba7f163c4a11628f55a4df523b3ef90611369908590611cde565b60405180910390a361137d60008383610f6c565b5050565b600081846001600160a01b031663dd62ed3e30866040518363ffffffff1660e01b81526004016113b29291906117f5565b60206040518083038186803b1580156113ca57600080fd5b505afa1580156113de573d6000803e3d6000fd5b505050506040513d601f19601f8201168201806040525081019061140291906117ad565b61140c9190611d7c565b9050610d3d8463095ea7b360e01b85846040516024016111f3929190611833565b6000611482826040518060400160405280602081526020017f5361666545524332303a206c6f772d6c6576656c2063616c6c206661696c6564815250856001600160a01b03166114bc9092919063ffffffff16565b805190915015610f6c57808060200190518101906114a09190611759565b610f6c5760405162461bcd60e51b815260040161040090611c18565b60606114cb84846000856114d3565b949350505050565b6060824710156114f55760405162461bcd60e51b815260040161040090611a65565b6114fe85611593565b61151a5760405162461bcd60e51b815260040161040090611be1565b600080866001600160a01b0316858760405161153691906117c5565b60006040518083038185875af1925050503d8060008114611573576040519150601f19603f3d011682016040523d82523d6000602084013e611578565b606091505b50915091506115888282866115a2565b979650505050505050565b6001600160a01b03163b151590565b606083156115b15750816103c5565b8251156115c15782518084602001fd5b8160405162461bcd60e51b81526004016104009190611878565b6000602082840312156115ec578081fd5b81356103c581611e7d565b60008060408385031215611609578081fd5b823561161481611e7d565b9150602083013561162481611e7d565b809150509250929050565b600080600060608486031215611643578081fd5b833561164e81611e7d565b9250602084013561165e81611e7d565b929592945050506040919091013590565b60008060408385031215611681578182fd5b823561168c81611e7d565b946020939093013593505050565b600060208083850312156116ac578182fd5b825167ffffffffffffffff808211156116c3578384fd5b818501915085601f8301126116d6578384fd5b8151818111156116e8576116e8611e67565b838102604051601f19603f8301168101818110858211171561170c5761170c611e67565b604052828152858101935084860182860187018a101561172a578788fd5b8795505b8386101561174c57805185526001959095019493860193860161172e565b5098975050505050505050565b60006020828403121561176a578081fd5b815180151581146103c5578182fd5b60006020828403121561178a578081fd5b81516103c581611e7d565b6000602082840312156117a6578081fd5b5035919050565b6000602082840312156117be578081fd5b5051919050565b600082516117d7818460208701611dea565b9190910192915050565b6001600160a01b0391909116815260200190565b6001600160a01b0392831681529116602082015260400190565b6001600160a01b039384168152919092166020820152604081019190915260600190565b6001600160a01b03929092168252602082015260400190565b6001600160a01b039390931683526020830191909152604082015260600190565b901515815260200190565b6000602082528251806020840152611897816040850160208701611dea565b601f01601f19169190910160400192915050565b60208082526023908201527f45524332303a207472616e7366657220746f20746865207a65726f206164647260408201526265737360e81b606082015260800190565b60208082526022908201527f45524332303a206275726e20616d6f756e7420657863656564732062616c616e604082015261636560f01b606082015260800190565b60208082526026908201527f4f776e61626c653a206e6577206f776e657220697320746865207a65726f206160408201526564647265737360d01b606082015260800190565b60208082526022908201527f45524332303a20617070726f766520746f20746865207a65726f206164647265604082015261737360f01b606082015260800190565b60208082526016908201527506661696c3a2063616e6e6f74206465706f73697420360541b604082015260600190565b6020808252601d908201527f45524332303a20696e73756666696369656e7420616c6c6f77616e6365000000604082015260600190565b60208082526026908201527f45524332303a207472616e7366657220616d6f756e7420657863656564732062604082015265616c616e636560d01b606082015260800190565b60208082526026908201527f416464726573733a20696e73756666696369656e742062616c616e636520666f6040820152651c8818d85b1b60d21b606082015260800190565b6020808252818101527f4f776e61626c653a2063616c6c6572206973206e6f7420746865206f776e6572604082015260600190565b60208082526021908201527f45524332303a206275726e2066726f6d20746865207a65726f206164647265736040820152607360f81b606082015260800190565b60208082526025908201527f45524332303a207472616e736665722066726f6d20746865207a65726f206164604082015264647265737360d81b606082015260800190565b60208082526018908201527f6661696c3a206d757374206465706f7369742066697273740000000000000000604082015260600190565b60208082526024908201527f45524332303a20617070726f76652066726f6d20746865207a65726f206164646040820152637265737360e01b606082015260800190565b6020808252601d908201527f416464726573733a2063616c6c20746f206e6f6e2d636f6e7472616374000000604082015260600190565b6020808252602a908201527f5361666545524332303a204552433230206f7065726174696f6e20646964206e6040820152691bdd081cdd58d8d9595960b21b606082015260800190565b60208082526025908201527f45524332303a2064656372656173656420616c6c6f77616e63652062656c6f77604082015264207a65726f60d81b606082015260800190565b6020808252601f908201527f45524332303a206d696e7420746f20746865207a65726f206164647265737300604082015260600190565b90815260200190565b9182526001600160a01b0316602082015260400190565b600060a082018783526020878185015260a0604085015281875180845260c0860191508289019350845b81811015611d4d5784516001600160a01b031683529383019391830191600101611d28565b50506001600160a01b03969096166060850152505050608001529392505050565b60ff91909116815260200190565b60008219821115611d8f57611d8f611e51565b500190565b600082611daf57634e487b7160e01b81526012600452602481fd5b500490565b6000816000190483118215151615611dce57611dce611e51565b500290565b600082821015611de557611de5611e51565b500390565b60005b83811015611e05578181015183820152602001611ded565b83811115610d3d5750506000910152565b600281046001821680611e2a57607f821691505b60208210811415611e4b57634e487b7160e01b600052602260045260246000fd5b50919050565b634e487b7160e01b600052601160045260246000fd5b634e487b7160e01b600052604160045260246000fd5b6001600160a01b0381168114610c3e57600080fdfea26469706673582212201f874f2db2b290ee8c9afc81ded01ee840d15586f3047df601d8a660616321e164736f6c63430008010033",
    "sourcePath": "/home/manuel/www/profit-maker-vault/contracts/Vault.sol",
    "compiler": {
        "name": "solc",
        "version": "0.8.1+commit.df193b15"
    },
    "functionHashes": {
        "allowance(address,address)": "dd62ed3e",
        "approve(address,uint256)": "095ea7b3",
        "asset()": "38d52e0f",
        "assetBalance()": "c66f2455",
        "balanceOf(address)": "70a08231",
        "decimals()": "313ce567",
        "decreaseAllowance(address,uint256)": "a457c2d7",
        "deposit(uint256)": "b6b55f25",
        "exchangeRate()": "3ba0b9a9",
        "harvest()": "4641257d",
        "increaseAllowance(address,uint256)": "39509351",
        "investedBalance()": "c9168a59",
        "name()": "06fdde03",
        "owner()": "8da5cb5b",
        "renounceOwnership()": "715018a6",
        "setStrategy(address)": "33a100ca",
        "symbol()": "95d89b41",
        "totalBalance()": "ad7a672f",
        "totalSupply()": "18160ddd",
        "transfer(address,uint256)": "a9059cbb",
        "transferFrom(address,address,uint256)": "23b872dd",
        "transferOwnership(address)": "f2fde38b",
        "underlyingUnit()": "53ceb01c",
        "withdraw(uint256)": "2e1a7d4d"
    },
    "gasEstimates": {
        "creation": {
            "codeDepositCost": "1576000",
            "executionCost": "infinite",
            "totalCost": "infinite"
        },
        "external": {
            "allowance(address,address)": "infinite",
            "approve(address,uint256)": "22636",
            "asset()": "infinite",
            "assetBalance()": "infinite",
            "balanceOf(address)": "1290",
            "decimals()": "374",
            "decreaseAllowance(address,uint256)": "23706",
            "deposit(uint256)": "infinite",
            "exchangeRate()": "infinite",
            "harvest()": "infinite",
            "increaseAllowance(address,uint256)": "23707",
            "investedBalance()": "infinite",
            "name()": "infinite",
            "owner()": "1137",
            "renounceOwnership()": "23552",
            "setStrategy(address)": "22118",
            "symbol()": "infinite",
            "totalBalance()": "infinite",
            "totalSupply()": "1096",
            "transfer(address,uint256)": "infinite",
            "transferFrom(address,address,uint256)": "infinite",
            "transferOwnership(address)": "infinite",
            "underlyingUnit()": "infinite",
            "withdraw(uint256)": "infinite"
        },
        "internal": {
            "convertCRVToAsset(contract IERC20)": "infinite"
        }
    }
}